{
  "contractName": "WonkyInuToken",
  "abi": [
    {
      "constant": true,
      "inputs": [],
      "name": "totalSupply",
      "outputs": [
        {
          "name": "",
          "type": "uint256"
        }
      ],
      "payable": false,
      "stateMutability": "view",
      "type": "function"
    },
    {
      "inputs": [],
      "payable": false,
      "stateMutability": "nonpayable",
      "type": "constructor"
    }
  ],
  "bytecode": "0x608060405234801561001057600080fd5b50620f4240600081905550609e806100296000396000f300608060405260043610603f576000357c0100000000000000000000000000000000000000000000000000000000900463ffffffff16806318160ddd146044575b600080fd5b348015604f57600080fd5b506056606c565b6040518082815260200191505060405180910390f35b600054815600a165627a7a723058206d3baef87c002c26129e9a1b015d0e4c3585d670e72effc47cc27f0bbacbed290029",
  "source": "pragma solidity ^0.4.2;\n\ncontract WonkyInuToken {\n  // Set total number of tokens\n  // Read total number of tokens\n\n  uint256 public totalSupply;\n\n  function WonkyInuToken () public {\n    totalSupply = 1000000;\n  }\n}\n",
  "sourcePath": "/Users/eugene/Documents/Coding Projects/ether/token_sale/contracts/WonkyInuToken.sol",
  "compiler": {
    "name": "solc",
    "version": "0.4.22+commit.4cb486ee.Emscripten.clang"
  },
  "schemaVersion": "3.4.3",
  "updatedAt": "2021-08-18T04:33:30.050Z",
  "networkType": "ethereum",
  "devdoc": {
    "methods": {}
  },
  "userdoc": {
    "methods": {}
  }
}